:100000000C9446000C9465000C9465000C946500FB
:100010000C9465000C9465000C9465000C946500CC
:100020000C9465000C9465000C9465000C946500BC
:100030000C9465000C94DE000C9465000C94650033
:100040000C9465000C9465000C9465000C9465009C
:100050000C9465000C9465000C9465000C9465008C
:100060000C9465000C9465000C9465000C9465007C
:100070000C9465000C9465000C9465000C9465006C
:100080000C9465000C9465000C94650011241FBE4F
:10009000CFEFD0E4DEBFCDBF11E0A0E0B1E0E8E9F2
:1000A000F4E000E00BBF02C007900D92A231B1074F
:1000B000D9F721E0A2E1B1E001C01D92A132B2075F
:1000C000E1F70E940F020C944A020C940000CF93B7
:1000D000DF9300D01F92CDB7DEB789837B836A831D
:1000E00089818A3031F48A819B81BC018DE00E9434
:1000F000670080EC90E0FC018081882F90E08072A6
:100100009927892BB1F386EC90E02981FC012083AB
:1001100080E090E00F900F900F90DF91CF910895C5
:10012000CF93DF93CDB7DEB781E890E02BE0FC0101
:10013000208388E890E02DE730E0FC0131832083C4
:100140008FE690E022E0FC01208384E890E0FC014F
:100150001182108280910E0190910F01A0911001E7
:10016000B09111018093130190931401A093150194
:10017000B09316018FE590E02FE530E0F901208182
:100180002068FC0120830000DF91CF910895CF9378
:10019000DF93CDB7DEB781E890E0FC01108200006C
:1001A000DF91CF910895CF93DF93CDB7DEB781E094
:1001B000809312010000DF91CF9108951F920F925A
:1001C00000905F000F92112400905B000F922F931C
:1001D0003F934F935F936F937F938F939F93AF93CF
:1001E000BF93EF93FF93CF93DF93CDB7DEB78091AB
:1001F000130190911401A0911501B091160101977E
:10020000A109B1098093130190931401A0931501E2
:10021000B09316018091130190911401A0911501E2
:10022000B0911601892B8A2B8B2B91F40E94D3005D
:1002300080910E0190910F01A0911001B0911101D8
:100240008093130190931401A0931501B0931601AC
:100250000000DF91CF91FF91EF91BF91AF919F91FE
:100260008F917F916F915F914F913F912F910F905F
:1002700000925B000F9000925F000F901F90189506
:10028000CF93DF9300D000D0CDB7DEB769837A83F8
:100290008B839C8389819A81AB81BC8180930E0181
:1002A00090930F01A0931001B093110180910E0162
:1002B00090910F01A0911001B09111018093130151
:1002C00090931401A0931501B093160100000F90B4
:1002D0000F900F900F90DF91CF910895CF93DF9300
:1002E000CDB7DEB78AE790E02AE730E0F901208158
:1002F000206EFC0120830000DF91CF910895CF9301
:10030000DF93CDB7DEB780E290E0FC018081882FDB
:1003100090E0909318018093170180911F019091B4
:1003200020018130910569F08130910518F0029724
:1003300079F015C081E090E09093200180931F0137
:1003400013C082E090E09093200180931F010CC0C5
:1003500082E090E09093200180931F0105C01092ED
:10036000200110921F01000080911F019091200137
:100370008130910539F08130910508F44BC0029726
:1003800099F049C088E790E0FC01808191819093C9
:100390001E0180931D0185E290E0FC0110828BE23A
:1003A00090E0FC01108237C088E790E0FC0180817A
:1003B000918190931E0180931D0180911D01909168
:1003C0001E0190931A018093190180911D01909153
:1003D0001E01892F992790931C0180931B01809106
:1003E0001B0190911C018370992790931C018093AD
:1003F0001B0185E290E02091190130911A01FC0166
:1004000020838BE290E020911B0130911C01FC01C4
:10041000208301C000000000DF91CF910895CF93A9
:10042000DF93CDB7DEB781E290E0FC01108282E27B
:1004300090E02FEFFC01208384E290E02FEFFC019D
:10044000208385E290E0FC0110828AE290E02FEFA9
:10045000FC0120838BE290E0FC0110820E946E017F
:1004600062E370E080E090E00E9440010E94900012
:100470001092200110921F0185E290E0FC01108291
:100480000E947F010000809112018823E1F3109205
:080490001201F6CFF894FFCF32
:1004980000000002000000006700000000000100EA
:0204A800000052
:00000001FF
